:100000000C9434000C943E000C943E000C943E0082
:100010000C943E000C943E000C943E000C943E0068
:100020000C943E000C943E000C943E000C943E0058
:100030000C943E000C943E000C943E000C943E0048
:100040000C943E000C943E000C943E000C943E0038
:100050000C943E000C943E000C943E000C943E0028
:100060000C943E000C943E0011241FBECFEFD8E04C
:10007000DEBFCDBF0E9440000C9475000C940000C0
:1000800084E08AB980EE8BB934E01BC0422F022E87
:10009000000C550B40955095952F991F9927991F46
:1000A0008823C1F027FD1DC03BB98BB18B6F8BB985
:1000B0002FEF83EC99E0215080409040E1F700C0A1
:1000C000000099B189B1807429B195FFDFCF90E02C
:1000D0008111E8CF990F990F9BB98BB184708BB9BF
:0E00E000E7CF990F990F9BB9E0CFF894FFCFAF
:00000001FF
