:100000000C945D000C9485000C9485000C94850084
:100010000C9485000C9485000C9485000C9485004C
:100020000C9485000C9485000C9485000C9485003C
:100030000C9485000C9485000C9485000C9485002C
:100040000C94C1020C9485000C9485000C948500DE
:100050000C9485000C9485000C9485000C9485000C
:100060000C9485000C94850000000008000201003B
:100070000003040700000000000000000000000072
:10008000250028002B0000000000240027002A0083
:10009000040404040404040402020202020203032E
:1000A0000303030301020408102040800102040836
:1000B0001020010204081020210411241FBECFEFDC
:1000C000D8E0DEBFCDBF11E0A0E0B1E0EEE8F8E09F
:1000D00002C005900D92A232B107D9F721E0A2E249
:1000E000B1E001C01D92A334B207E1F710E0CDE505
:1000F000D0E004C02197FE010E943F04CC35D10717
:10010000C9F70E940B030C9445040C94000090E086
:10011000FC01EC55FF4F249180579F4FFC018491C7
:10012000882399F090E0880F991FFC01EA57FF4F50
:10013000A591B491FC01E458FF4F859194918FB73C
:10014000F894EC91E22BEC938FBF089590E0FC01C2
:10015000E859FF4F2491FC01EC55FF4F3491FC010D
:10016000E057FF4FE491EE23C9F0222339F023300A
:1001700001F1A8F4213019F1223029F1F0E0EE0F5D
:10018000FF1FE458FF4FA591B4918FB7F894EC91FD
:10019000611126C030953E233C938FBF08952730D0
:1001A000A9F02830C9F0243049F7809180008F7D74
:1001B00003C0809180008F7780938000DFCF84B56B
:1001C0008F7784BDDBCF84B58F7DFBCF8091B0006E
:1001D0008F778093B000D2CF8091B0008F7DF9CF20
:1001E0003E2BDACF3FB7F8948091270190912801F8
:1001F000A0912901B0912A0126B5A89B05C02F3FE7
:1002000019F00196A11DB11D3FBFBA2FA92F982F3C
:100210008827BC01CD01620F711D811D911D42E037
:10022000660F771F881F991F4A95D1F708958F92FF
:100230009F92AF92BF92CF92DF92EF92FF924B01CB
:100240005C010E94F2006B017C010E94F2006C19BB
:100250007D098E099F09683E734081059105A8F3C9
:1002600021E0821A9108A108B10888EEC80E83E047
:10027000D81EE11CF11C81149104A104B10429F7DA
:10028000FF90EF90DF90CF90BF90AF909F908F90B6
:100290000895AF92BF92CF92DF92EF92FF920F93A9
:1002A0001F93CF93DF936C017B018B01040F151F0C
:1002B000EB015E01AE18BF08C017D10759F0699174
:1002C000D601ED91FC910190F081E02DC6010995D8
:1002D000892B79F7C501DF91CF911F910F91FF9085
:1002E000EF90DF90CF90BF90AF900895089590E089
:1002F00080E00895CF93DF93EC0160E08E810E944F
:10030000A60061E08E810E94A60060E08E810E94BE
:10031000A6008BE891E00197F1F7DF91CF91089566
:10032000CF92DF92EF92FF920F931F93CF93DF93C1
:100330006C017C0187E0E80EF11CD0E0C0E0062FE4
:1003400010E0B8010C2E02C0759567950A94E2F78B
:100350006170F70181917F010E94A6002196C4304F
:10036000D10579F7C601DF91CF911F910F91FF90D1
:10037000EF90DF90CF900C947A01CF92DF92EF92C2
:10038000FF920F931F93CF93DF93EC01F62E642F10
:100390008C810E94A6008D818F3F19F060E00E9441
:1003A000A6000F2D10E08F8584FF25C06E0187E029
:1003B000C80ED11CF12CE12CB8010E2C02C0759591
:1003C00067950A94E2F76170F60181916F010E94CE
:1003D000A600FFEFEF1AFF0A88E0E816F10461F7C4
:1003E000CE01DF91CF911F910F91FF90EF90DF90A1
:1003F000CF900C947A01B80184E0759567958A9541
:10040000E1F7CE010E9490016F2DCE01DF91CF91D7
:100410001F910F91FF90EF90DF90CF900C9490017F
:1004200040E0682F8BE291E00C94BD0181E00E94D6
:1004300010028BE39FE10197F1F70895CF93DF93CB
:10044000823029F490913A01986090933A01809318
:100450003E0110923F0180E48093400180E180934F
:10046000410180E58093420180912F010E94870025
:10047000809130018F3F11F00E94870080913101FF
:100480000E948700CBE2D1E09E012B523140809147
:100490003A0184FD0AC084E090E0219628173907CC
:1004A0003CF48E810E948700EFCF88E090E0F5CF8A
:1004B0008BE39DE00197F1F760E080912F010E94AE
:1004C000A60060E0809131010E94A6008091300179
:1004D0008F3F19F060E00E94A60080913A0184FDF0
:1004E00034C063E08BE291E00E949001CBE4D6E45B
:1004F000CE010197F1F763E08BE291E00E94900159
:100500002197F1F763E08BE291E00E94900183E58F
:1005100092E00197F1F762E08BE291E00E94900196
:1005200080913A0180620E94100284E080933B0136
:100530008CE00E9410020E94160282E080933C012F
:1005400086E0DF91CF910C94100280620E9410022D
:100550008BE496E40197F1F780913A0180620E9462
:10056000100283E592E00197F1F780913A018062F1
:100570000E941002D5CF41E00E94BD0181E090E0D1
:1005800008951F920F920FB60F9211242F933F934D
:100590008F939F93AF93BF938091230190912401F8
:1005A000A0912501B09126013091220123E0230F73
:1005B0002D3758F50196A11DB11D2093220180937E
:1005C000230190932401A0932501B09326018091EB
:1005D000270190912801A0912901B0912A0101964B
:1005E000A11DB11D8093270190932801A09329019B
:1005F000B0932A01BF91AF919F918F913F912F911D
:100600000F900FBE0F901F90189526E8230F0296AB
:10061000A11DB11DD2CF789484B5826084BD84B50C
:10062000816084BD85B5826085BD85B5816085BDED
:1006300080916E00816080936E00109281008091A5
:10064000810082608093810080918100816080932D
:100650008100809180008160809380008091B10052
:1006600084608093B1008091B00081608093B0007D
:1006700080917A00846080937A0080917A00826011
:1006800080937A0080917A00816080937A008091D3
:100690007A00806880937A001092C10082E00E9404
:1006A0001E028DE00E94870005E710E0C4E6D0E05E
:1006B00084E6D82E90E0E92E90E0F92E8DE00E949D
:1006C0008700F8018491833009F49DC050F4813093
:1006D000D1F0823009F492C060E08DE00E94A60063
:1006E00016C0873009F499C0883009F49EC0843060
:1006F00099F780918000806280938000D0938B0076
:10070000C0938A0004C084B5806884BDD7BC47E02C
:1007100050E06CE071E08BE291E00E94490168EBEF
:100720007BE080E090E00E941701E0913E01E23022
:1007300008F083C0E150F0E0E55DFE4F84898E5FF4
:1007400080680E9410024CE050E064E171E08BE2AE
:1007500091E00E94490168EB7BE080E090E00E941C
:1007600017010E94160280913B01982F916090938F
:100770003B0189600E94100260EA7FE080E090E027
:100780000E941701E0913E01E23008F058C0E150AC
:10079000F0E0E55DFE4F8489895F80680E94100269
:1007A00068EB7BE080E090E00E94170180913B01C4
:1007B0008E7F80933B0188600E94100280913B01F4
:1007C000982F926090933B018A600E94100260EA29
:1007D0007FE080E090E00E94170180913B018D7FD7
:1007E00080933B0188600E9410020E941602E1146F
:1007F000F10409F463CF0E94000060CF84B58062E9
:1008000084BDD8BC84CF80918000806880938000B4
:10081000D0938900C09388007ACF8091B00080681F
:100820008093B000D092B30072CF8091B00080620C
:100830008093B000D092B4006ACFE1E07CCFE1E0D9
:10084000A7CFEBE2F1E01382128284E091E0918382
:10085000808381E084838FEF858382E0868384E0D8
:10086000878385E0808786E0818787E0828713869B
:10087000148615861686178681E00C941E02EE0FEC
:0E088000FF1F0590F491E02D0994F894FFCF2E
:10088E0000000000BB0249017701760141726475D8
:10089E00696E6F004C4344205475746F7269616CBD
:0208AE00000048
:00000001FF
